:020000040800F2
:10000000B0880020D5060008A9040008AB04000849
:10001000AF040008B3040008B704000800000000A3
:10002000000000000000000000000000BB04000809
:10003000BD04000800000000BF040008C10400085F
:10004000EF060008EF060008EF060008EF060008BC
:10005000EF060008EF060008EF060008EF060008AC
:10006000EF060008EF060008EF060008EF0600089C
:10007000EF060008EF060008EF060008EF0600088C
:10008000EF060008EF060008EF06000867340008D6
:10009000373B0008EF060008EF060008EF060008EF
:1000A000EF060008EF060008EF060008EF0600085C
:1000B00083430008A5430008EF060008EF06000888
:1000C000EF060008EF060008EF060008EF0600083C
:1000D000EF060008F3310008C94100083F4200085C
:1000E000EF060008EF060008EF060008EF0600081C
:1000F000EF060008EF060008EF060008EF0600080C
:10010000EF060008EF060008EF060008EF060008FB
:10011000EF060008EF060008EF060008EF060008EB
:10012000EF060008EF060008EF060008EF060008DB
:10013000EF060008EF060008EF060008EF060008CB
:10014000EF060008EF060008EF060008EF060008BB
:10015000EF060008EF060008EF060008EF060008AB
:10016000EF060008EF060008EF060008EF0600089B
:10017000EF060008EF060008EF060008EF0600088B
:10018000EF060008EF060008DFF80CD005F02CF9A8
:100190000048004789020008B088002010B52DED06
:1001A000028BB148B0F90020B0A1B14805F0CCF9FC
:1001B000B048B0F90020ADA1AD48001D05F0C4F96C
:1001C000AD48B0F9000000EE100AB8EEC00ADFED4D
:1001D000AB0A80EE201A9FEDAA0A21EE000A10EE6B
:1001E000104A204604F0EEFE41EC180B53EC182B9D
:1001F000A4A19F48083005F0A7F9A448B0F902006F
:1002000000EE100AF8EEC00A9FED9C1A80EE810AFB
:10021000DFED9B0A20EE200A10EE104A204604F083
:10022000D1FE41EC180B53EC182B96A190480D30E1
:1002300005F08AF99548B0F9040000EE100AF8EECE
:10024000C00A9FED8E1A80EE810ADFED8D0A20EE46
:10025000200A10EE104A204604F0B4FE41EC180BC0
:1002600053EC182B87A18248123005F06DF900BFBE
:100270007F4804F059FD2028FAD120217C4804F061
:1002800096FEBDEC028B10BD86B04FF4A06000F06E
:1002900033FAA82002F0CCFE04F01EFA012004F08C
:1002A000CBF84FF480717A4801F092F84FF4E130C6
:1002B00002F04DFF4FF4E13003F0CEFE4FF4E13099
:1002C00003F026FF04F061FC04E04FF480717048F5
:1002D00001F07CF804F0DDFC0028F6D14FF48071C9
:1002E0006B4801F075F804F091FD04F015FA04F084
:1002F00004FC03F07DFD42F2CF0140F2E73003F051
:10030000E7FFB3EE090A8DED000A9FED620A8DED5D
:10031000010A9FED600A8DED020AB2EE0A0A8DED28
:10032000050A9FED5D0A8DED030A9FED5B0A8DEDD9
:10033000040A684603F014FD4FF4487002F0DAFE38
:1003400040F214505549088004F048F88AE004F05F
:10035000C4FA04465248007800287DD0002C7BD097
:1003600000204F490870052C07D161204D490870C5
:100370004A48008804F0D1F872E0062C08D16620C3
:10038000484908704548008800B204F041F967E028
:10039000072C07D16220434908704048008804F0C8
:1003A000D5F85DE0082C08D165203E4908703B482F
:1003B000008800B204F043F952E0092C50D00B2C15
:1003C00005D13648008800B204F0D9F848E00C2C7A
:1003D00005D13248008800B204F0EAF840E00D2C64
:1003E00016D12148008800F5FA7000B21E49088035
:1003F0000846B0F9000041F28831884202DB084625
:10040000194908801848B0F9000004F033F927E0D2
:100410000E2C25D00F2C05D160202249087003F046
:10042000DDFF1DE0102C1BD11248008800F5FA708A
:1004300000B2104908800846B0F9000041F2883146
:10044000884202DB08460B4908800A48B0F90000E0
:1004500004F019F904E0FFE714B90120104908700D
:10046000FFF79CFE73E700000000002025640000F9
:10047000B4000020020000204E00002000000047D1
:1004800000003443252E31660000000046000020A5
:1004900000140240000000000000484284000020D8
:1004A0000400002083000020704700BFFEE700BF6B
:1004B000FEE700BFFEE700BFFEE7704770477047EA
:1004C000704700000CB5002001900090764800684D
:1004D00040F480307449086000BF7348006800F43D
:1004E000003000900198401C0190009818B90198C4
:1004F000B0F5A04FF1D16C48006800F4003010B1A5
:100500000120009001E0002000900098012846D1D1
:1005100065484030006840F08050634940310860D1
:100520006248006840F44040604908605E48083016
:1005300000685D49083108600846006840F40040E2
:1005400008600846006840F4A05008605848091F39
:100550000860081F006840F08070091F086000BF35
:100560005148006800F000700028F9D040F2057092
:10057000504908604C480830006820F003004A49A0
:10058000083108600846006840F00200086000BFBB
:1005900045480830006800F00C000828F8D10CBD70
:1005A00010B54548006840F47000434908603E4873
:1005B000006840F001003C49086000203A490831D9
:1005C0000860394800683D490840374908603C48A0
:1005D000091D0860081F006820F48020091F0860BA
:1005E000002031490C310860FFF76CFF4FF00060CC
:1005F00031498039086010BD70B500200022022307
:1006000000240221284D08352D6805F00C0020B18A
:10061000042806D0082834D107E02A4D2A4E356038
:1006200033E02A4D284E35602FE01F4D2D1D2D68DB
:10063000C5F380541C4D2D1D2D6805F03F0154B1AC
:10064000224DB5FBF1F5184E361D3668C6F38816F7
:1006500005FB06F209E01B4DB5FBF1F5124E361D08
:100660003668C6F3881605FB06F20F4D2D1D2D6862
:10067000C5F301456D1C6B00B2FBF3F5124E3560FE
:1006800003E0104D104E356000BF00BF064D083529
:100690002D68C5F303150E4E705D0B4D2D68C540DA
:1006A000094E356070BD0000003802400070004007
:1006B00008544007003C024088ED00E0FFFFF6FED2
:1006C000103000240024F4000800002000127A00FA
:1006D0000C0000200648804706480047FEE7FEE77A
:1006E000FEE7FEE7FEE7FEE7FEE7FEE7FEE7FEE7E2
:1006F000A10500088901000832490143324A11600E
:10070000704770B5002100230F22C4781CB32E4C13
:10071000246804F4E064C4F5E064C4F30721C1F183
:100720000404E3B20A4144789C40E1B28478144066
:1007300021430C07210E254C05786155047804F0FF
:100740001F050124AC4005786D11AD0005F1E025D1
:10075000C5F8004109E0047804F01F050124AC400D
:100760001B4D0678761145F8264070BD194A0A409F
:100770000243154B1B1F1A60704739B1124A121DF4
:1007800012680243104B1B1D1A6006E00E4A121D30
:10079000126882430C4B1B1D1A607047042808D155
:1007A0004FF0E021096941F004014FF0E0221161AE
:1007B00007E04FF0E021096921F004014FF0E02249
:1007C000116170470000FA050CED00E000E400E064
:1007D00080E100E080FFFF1F10B50446FE48844220
:1007E00009D10121480601F0B1F800214FF0007055
:1007F00001F0ACF808E00121880601F0A7F800211B
:100800004FF0806001F0A2F810BD30B50246002024
:100810000023146824F002041460146844F00104F6
:10082000146000E05B1C546804F001041CB94FF62E
:10083000FF74A342F6D1546804F001040CB90020FF
:100840006CE08C79012C04D1146844F080041460AD
:1008500003E0146824F080041460CC79012C04D1E6
:10086000146844F04004146003E0146824F0400469
:1008700014600C7A012C04D1146844F02004146034
:1008800003E0146824F0200414604C7A012C04D195
:10089000146844F01004146003E0146824F0100499
:1008A00014608C7A012C04D1146844F0080414609C
:1008B00003E0146824F008041460CC7A012C04D1FD
:1008C000146844F00404146003E0146824F0040481
:1008D00014608C78A407CD7844EA05640D7944EA65
:1008E00005444D7944EA05540D886D1E2C43D461AE
:1008F000146824F001041460002300E05B1C5468B9
:1009000004F001041CB14FF6FF74A342F6D1546801
:1009100004F001040CB1002000E0012030BD10B54E
:100920000021837A012202FA03F1AC4A126842F0F4
:100930000102AA4B1A60A94A1C3212688A43A74BCB
:100940001C331A60027BCAB9A44A0C3212688A436B
:10095000A24B0C331A604288C38842EA03439F4A81
:100960004032847A42F834300288838842EA034372
:100970009A4A4032847A02EBC4025360027B012A15
:1009800019D1964A0C3212680A43944B0C331A6000
:100990004288038842EA0343904A4032847A42F80C
:1009A0003430C288838842EA03438C4A4032847AD6
:1009B00002EBC4025360C27A3AB9884A121D126827
:1009C0008A43864B1B1D1A6006E0844A121D12687A
:1009D0000A43824B1B1D1A60028932B97F4A1432C6
:1009E00012688A437D4B14331A600289012A06D1AA
:1009F0007A4A143212680A43784B14331A60427BE5
:100A0000012A06D1754A1C3212680A43734B1C3303
:100A10001A60724A126822F00102704B1A6010BD0F
:100A200000218171C171017241728172C172817044
:100A3000C1700321017102214171012101807047C0
:100A40006649096841F00101644A1160114609686C
:100A500043F60E729143614A11601146096841EAFA
:100A6000002111601146096821F0010111607047F1
:100A700021B1026842F48032026003E0026822F48D
:100A8000803202607047E1B1026842F08002026089
:100A90004FF4C272125842F480734FF4C272135072
:100AA0004FF4CA72125842F480734FF4CA72135052
:100AB0004FF4D272125842F480734FF4D272135032
:100AC0001BE0026822F0800202604FF4C2721258EA
:100AD00022F480734FF4C27213504FF4CA7212584A
:100AE00022F480734FF4CA7213504FF4D27212582A
:100AF00022F480734FF4D2721350704710B502463F
:100B00000020936803F08063B3F1806F00D110E0A0
:100B1000936803F00063B3F1006F01D1012008E096
:100B2000936803F08053B3F1805F01D1022000E0AD
:100B30000420042879D002F5C07303EB00131B686E
:100B400003F0010402F5C07303EB00131C600B7A81
:100B50007BB94B7A0C8843EA445302F5C07404EB2A
:100B600000142468234302F5C07404EB00142360CE
:100B700010E00B7A4C6843EAC4034C7A234302F535
:100B8000C07404EB00142468234302F5C07404EB22
:100B9000001423608B7A03F00F038B7202F5C0738D
:100BA00003EB00135B6823F00F0402F5C07303EB43
:100BB00000135C6002F5C07303EB00135B688C7A72
:100BC000234302F5C07404EB001463608B7B1C06A6
:100BD0004B7B44EA034403E00064004000660040AD
:100BE0000B7B44EA0323CC7A234302F5C07404EB65
:100BF0000014A3608B7C1C064B7C44EA03440B7CF2
:100C000044EA0323CC7B234302F5C07404EB0014B5
:100C1000E36002F5C07303EB00131B6843F00104AB
:100C200002F5C07303EB00131C6010BD10B5024643
:100C3000002321B1012907D002290FD109E09068D2
:100C4000F94C00EA04030BE09068F84C00EA040356
:100C500006E09068F64C00EA040301E0002300BFC0
:100C600000BFF44C181BA34216D007DC83B16FF011
:100C70008060184470B1022818D111E0B0F5007FEF
:100C800010D0ED4C204448B1B0F5003F0ED10BE040
:100C900002230DE000230BE0002309E0002307E01E
:100CA000012305E0012303E0012301E0002300BF4D
:100CB00000BFD8B210BD21B1012907D002290FD140
:100CC00009E0826842F0800282600AE0826842F4B1
:100CD0000042826005E0826842F40002826000E027
:100CE00000BF00BF704710B500F5D87303EB0113C8
:100CF0001B6803F004031372137A53B900F5D87319
:100D000003EB01131B6840F2FF7404EA53531360B2
:100D100009E000F5D87303EB01131B686FF0604422
:100D200004EAD303536000F5D87303EB01131B6887
:100D300003F00203537200F5D87303EB01135B68F1
:100D400003F00F03937200F5D87303EB01135B6894
:100D50001B0AD37400F5D87303EB01139B68D3729D
:100D600000F5D87303EB01139B681C0A147300F59C
:100D7000D87303EB01139B681C0C547300F5D873F4
:100D800003EB01139B681B0E937300F5D87303EB01
:100D90000113DB68D37300F5D87303EB0113DB6831
:100DA0001C0A147400F5D87303EB0113DB681C0CE8
:100DB000547400F5D87303EB0113DB681B0E9374B6
:100DC00021B9C36843F02003C36003E0036943F023
:100DD0002003036110BD21B9C26842F02002C26045
:100DE00003E0026942F020020261704702460020DF
:100DF00019B9D36803F0030006E0012903D1136990
:100E000003F0030000E00020704710B502460B46D7
:100E100000204FF6FF71BBB9146824F0020444F0BF
:100E20000104146000E0491E546804F00304012C1E
:100E300001D00029F7D1546804F00304012C01D03B
:100E4000002032E0012030E0012B13D1146824F09F
:100E50000304146000E0491E546804F003040CB15C
:100E60000029F8D1546804F003040CB100201CE000
:100E700001201AE0022B17D1146824F0010444F079
:100E80000204146000E0491E546804F00304022CBC
:100E900001D00029F7D1546804F00304022C01D0DA
:100EA000002002E0012000E0002010BD01460020EB
:100EB0000A6822F0010242F002020A604A6802F067
:100EC0000302022A00D10120704701464FF6FF724B
:100ED00000200B6823F002030B6000E0521E4B68F9
:100EE00003F00203022B01D1002AF7D14B6803F073
:100EF0000203022B00D001207047014600208A69BE
:100F000002F070007047014600208A69100E704799
:100F1000014600208A69C2F3074070471AB143694D
:100F20000B43436102E043698B434361704710B553
:100F30000246002001F4700343B19369C1F3130426
:100F400023400BB101202DE000202BE001F0807345
:100F500043B15368C1F3130423400BB1012021E0D6
:100F600000201FE001F0006343B19368C1F3130454
:100F700023400BB1012015E0002013E001F00073C5
:100F800043B1D368C1F3130423400BB1012009E03E
:100F9000002007E01369C1F3130423400BB10120C3
:100FA00000E0002010BD0022244B994202D1002312
:100FB000836111E0C1F3130201F000730BB1C26051
:100FC0000AE001F080630BB1026105E001F000630B
:100FD0000BB1826000E0426070470246002002EAE6
:100FE00001030BB1012000E00020704770B50446FA
:100FF0000D46002660692840002872D0B5F5807F34
:1010000069D01DDC082D42D006DC012D2DD0022D2B
:1010100031D0042D7FD134E0102D3ED0202D42D090
:10102000402D78D145E000000300000400030008D3
:1010300000000310000100080001FFF77000F0300D
:10104000B5F5004F61D009DCB5F5007F4AD0B5F5A4
:10105000806F4DD0B5F5006F5DD150E0B5F5803FA4
:101060002DD0B5F5003F56D12FE0A0685549FFF7C8
:10107000B4FF064651E0E0680321FFF7AEFF0646E5
:101080004BE0E0680821FFF7A8FF064645E0E0686E
:101090001021FFF7A2FF06463FE020690321FFF77A
:1010A0009CFF064639E020690821FFF796FF0646B7
:1010B00033E020691021FFF790FF06462DE06068BD
:1010C0000821FFF78AFF064627E060681021FFF736
:1010D00084FF064621E0A0690121FFF77EFF064656
:1010E0001BE01BE0A0690221FFF777FF064614E032
:1010F000A0690421FFF771FF06460EE00BE0A0692E
:101100007021FFF76AFF064607E060680421FFF7D9
:1011100064FF064601E0002600BF00E000263046DE
:1011200070BDB1F5007F3AD00FDC202928D006DC55
:1011300001291CD004291DD0082940D11DE04029D7
:1011400021D0B1F5807F3AD126E0B1F5004F31D002
:1011500006DCB1F5806F25D0B1F5006F2FD124E00A
:10116000B1F5803F12D0B1F5003F28D111E0154A0A
:10117000826025E00822C26022E01022C2601FE0E7
:10118000082202611CE01022026119E0082242607C
:1011900016E01022426013E00422426010E00422B4
:1011A00042600DE0042242600AE0002282610422D3
:1011B000426005E0002282610422426000E000BF3C
:1011C00000BF70470101010010B5044698488442F1
:1011D00008D10121084600F086FB0021012000F023
:1011E00082FB76E09348844208D10121022000F07E
:1011F0007AFB0021022000F076FB6AE08E488442F0
:1012000008D10121042000F06EFB0021042000F031
:101210006AFB5EE08948844208D10121082000F081
:1012200062FB0021082000F05EFB52E0844884420B
:1012300008D10121102000F056FB0021102000F001
:1012400052FB46E07F48844208D10121202000F073
:101250004AFB0021202000F046FB3AE07A48844215
:1012600008D10121402000F03EFB0021402000F089
:101270003AFB2EE07548844208D10121802000F01D
:1012800032FB0021802000F02EFB22E070488442D7
:1012900008D10121801500F026FB0021A01500F0E7
:1012A00022FB16E06B48844208D10121401500F072
:1012B0001AFB0021601500F016FB0AE06648844224
:1012C00007D10121001500F00EFB0021201500F0D0
:1012D0000AFB10BDF0B50A4600210023002400BF20
:1012E0003DE0012505FA01F3156805EA03049C4277
:1012F00034D105684F000326BE40B543056015791B
:101300004E00B5400668354305601579012D02D0C1
:101310001579022D16D185684F000326BE40B543CE
:10132000856055794E00B5408668354385604568CF
:1013300001268E40B5434560456896798E40B6B229
:1013400035434560C5684F000326BE40B543C560C0
:10135000D5794E00B540C6683543C560491C102993
:10136000BFD3F0BD4FF6FF710160002101714171E3
:101370008171C171704708B54FF480320092009AB4
:101380000A430092009AC261C161009AC261C269B7
:101390000092C269009208BD0246002013690B400A
:1013A0000BB1012000E0002070470146086980B2BF
:1013B00070470246002053690B400BB1012000E04A
:1013C000002070470146486980B27047018370472A
:1013D000418370470AB1018300E041837047416156
:1013E000704742694A4042617047F0B500230024CB
:1013F0004D07ED0E02FA05F3CE1000F1200555F869
:1014000026504E07F70E0F26BE40B543CF1000F111
:10141000200646F82750CE1000F1200555F826503A
:1014200045EA0304CE1000F1200545F82640F0BD42
:10143000000002400004024000080240000C02408C
:10144000001002400014024000180240001C02403C
:10145000002002400024024000280240F9480068B1
:1014600040F00100F74908600020F64908310860A3
:10147000F4480068F4490840F2490860F348091D3F
:101480000860F348EF4984310860F0481038091DBE
:101490000860EC48006820F48020EA4908600020D9
:1014A000E8490C310860E7498C3108607047002139
:1014B000E44A921C117011460870704710B501463D
:1014C0000022002300204A11012A02D1DD4C2368AA
:1014D00008E0022A03D1DB4C7034236802E0D94CC7
:1014E0007434236801F01F02012494401C400CB1A5
:1014F000012000E0002010BD38B50020009000243D
:10150000002500BF3120FFF7D9FF05460098401C99
:1015100000900098B0F5A04F01D0002DF2D03120FE
:10152000FFF7CCFF08B1012400E00024204638BDBD
:1015300001460020C34A106820F0F80040EAC100CC
:1015400010607047C349086070470021BD4A70327F
:1015500011701170012802D004280AD104E0012181
:10156000B84A7032117005E00521B64A7032117028
:1015700000E000BF00BF7047B7490860704770B512
:10158000049C41EA82150126C6EB530645EA06454E
:10159000054345EA0465AB4E361D356070BDAD4967
:1015A00008667047820142EA0172A64B84331A60D2
:1015B0007047A8498866704710B5830143EA016304
:1015C00043EA02739F4C8834236010BDA149086729
:1015D0007047A049C864704702460020994B083301
:1015E000186820F0EC6042EA01031843954B083379
:1015F0001860704702460020924B0833186820F0AC
:10160000784042EA010318438E4B08331860704754
:10161000014600208B4A0832106820F0030008437E
:101620001060704787480830006800F00C00704771
:1016300001460020834A0832106820F0F000084379
:1016400010607047014600207E4A0832106820F47E
:10165000E05008431060704701460020794A083284
:10166000106820F4604040EAC10010607047F0B597
:10167000002100220024022500260223714F083792
:101680003F6807F00C0121B1042905D0082937D1A2
:1016900005E0724F076036E0714F076033E0694F35
:1016A0003F1D3F68C7F38056664F3F1D3F6807F0F8
:1016B0003F036EB16A4FB7FBF3F7DFF888C10CF157
:1016C000040CDCF800C0CCF3881C07FB0CF40CE025
:1016D000624FB7FBF3F7DFF86CC10CF1040CDCF8D8
:1016E00000C0CCF3881C07FB0CF4564F3F1D3F682D
:1016F000C7F301477F1C7D00B4FBF5F7076002E0EC
:10170000564F076000BF00BF4E4F08373F6807F0D5
:10171000F0010909534F7A5C0768D7404760494F89
:1017200008373F6807F4E051890A4E4F7A5C4768F2
:10173000D7408760434F08373F6807F46041490B43
:10174000484F7A5C4768D740C760F0BD002100F47D
:101750004072B2F5407F0AD13A4A0832116821F44A
:10176000F811414A02401143364A08321160354AA5
:1017700070321268C0F30B031A43324B70331A6095
:10178000704735494439086070473349403908602B
:10179000704736490860704701460020294A8C325C
:1017A000106820F01F004A1E1043264A8C32106039
:1017B000704701460020234A8C32106820F4F8500C
:1017C0004A1E40EA02201F4A8C32106070470146D0
:1017D00000201C4A8C32106820F44010084310602E
:1017E000704701460020174A8C32106820F44000F0
:1017F00008431060704701460020124A8C3210687E
:1018000020F4403008431060704719490860704761
:1018100039B10C4A3032126802430A4B30331A6035
:1018200006E0084A303212688243064B30331A60B1
:101830007047F9B1034A343212680243014B343322
:101840001A601CE000380240FFFFF6EA1030002466
:101850000030002000004742800E47420024F40080
:1018600000127A001C000020FFFCFF0F5C014742C1
:10187000E01147428F4A126882438E4B1A607047CC
:1018800039B18C4A121D126802438A4B1B1D1A6023
:1018900006E0884A121D12688243864B1B1D1A609F
:1018A000704739B1834A0C3212680243814B0C33C2
:1018B0001A6006E07F4A0C32126882437D4B0C337B
:1018C0001A60704739B17B4A103212680243794B73
:1018D00010331A6006E0774A103212688243754B63
:1018E00010331A60704739B1724A243A12680243C1
:1018F000704B243B1A6006E06E4A243A1268824319
:101900006C4B243B1A60704739B16A4A203A12681E
:101910000243684B203B1A6006E0664A203A126890
:101920008243644B203B1A60704739B1614A1C3ACC
:10193000126802435F4B1C3B1A6006E05D4A1C3A8A
:10194000126882435B4B1C3B1A60704739B1594A9D
:10195000143A12680243574B143B1A6006E0554A8A
:10196000143A12688243534B143B1A60704739B1E2
:10197000504A103A126802434E4B103B1A6006E080
:101980004C4A103A126882434A4B103B1A60704727
:1019900039B1484A1C3212680243464B1C331A6064
:1019A00006E0444A1C3212688243424B1C331A60E0
:1019B000704739B13F4A2032126802433D4B203311
:1019C0001A6006E03B4A203212688243394B2033CA
:1019D0001A60704739B1374A243212680243354BD6
:1019E00024331A6006E0334A243212688243314BB2
:1019F00024331A60704739B12E4A2C3212680243E0
:101A00002C4B2C331A6006E02A4A2C32126882438F
:101A1000284B2C331A60704739B1264A303212688D
:101A20000243244B30331A6006E0224A30321268F7
:101A30008243204B30331A607047012808D11D497A
:101A40003C31096841F008011A4A3C32116007E054
:101A500018493C31096821F00801164A3C321160EE
:101A6000704739B1134A273A12780243114B273B8A
:101A70001A7006E00F4A273A127882430D4B273B33
:101A80001A7070470B484030006840F08070094978
:101A900040310860704701460020064A283A126823
:101AA0000A400AB1012000E00020704701492639B0
:101AB000087070473438024010B50446FB48844231
:101AC00008D101218014FFF752FF0021A014FFF775
:101AD0004EFF3CE0F648844208D101210014FFF794
:101AE00035FF00212014FFF731FF30E0F148844238
:101AF00008D10121C013FFF729FF0021E013FFF7F0
:101B000025FF24E0EC48844208D101214014FFF76E
:101B10002EFF00216014FFF72AFF18E0E7488442F7
:101B200009D101210805FFF722FF00214FF48010A1
:101B3000FFF71DFF0BE0E248844208D10121480570
:101B4000FFF715FF00214FF40010FFF710FF10BD45
:101B500010B50022028802F441520B884C882343BE
:101B60008C882343CC8823430C8923434C8923430B
:101B70008C892343CC8923431A430280838B4FF201
:101B8000FF74234083830B8A038210BD2DE9F04F3D
:101B90000025022300244FF001090022002600271F
:101BA00094469046B0F81CA04FF2400B0AEA0B0A8C
:101BB000A0F81CA04FF0020AA0F820A0858BD1F855
:101BC00008A0BAF1020F01D100BF82E0B1F804A071
:101BD000BAF1000F02D14FF0010901E04FF0020904
:101BE000DFF8E0A2DAF800A00AF4000ABAF1000F68
:101BF00009D0DFF8D0A2DAF800A02AF4000ADFF852
:101C0000C4B2CBF800A0DFF8BCA20AF17C0ADAF873
:101C100000A0CAF3881CDFF8ACA20AF17C0ADAF84B
:101C200000A0CAF30278DFF89CA2AAF1040ADAF84D
:101C300000A00AF03F07DFF88CA2AAF1040ADAF844
:101C400000A00AF4800ABAF5800F08D1DFF878A264
:101C5000BAFBF7FA0AFB0CFABAFBF8F607E0DFF872
:101C60006CA2BAFBF7FA0AFB0CFABAFBF8F6B1F869
:101C700006A0BAF5007F0ED14FEA162A0AEB8A0AAF
:101C80004FEA4A0AD1F808B0BAFBFBFA0AF1050A92
:101C90001FFA8AF20FE04FEA491AB6FBFAFA0AEB8A
:101CA0008A0A4FEA4A0AD1F808B0BAFBFBFA0AF1ED
:101CB000050A1FFA8AF24FF00A0AB2FBFAF202F0A2
:101CC0000104A2EB040ACAF34F034FF6FF7A0AEAB3
:101CD0000424022B01DBFF2B01DD02230024B1F8D9
:101CE00006A04AEA040A4AEA030AA0F820A0B1F8CA
:101CF00004A0B1F80CB04AEA0B0AB1F802B04AEA03
:101D00000B0AB1F800B04AEA0B0A4AF4006A4AEA40
:101D100005058583BDE8F08F002101804180818029
:101D2000C180018141818181C18107210182704788
:101D30000021018041808180C180022181600021D9
:101D40008181704721B1028842F04002028004E0A4
:101D500002884FF6BF731A400280704721B1828B10
:101D600042F48062828304E0828B4FF6FF331A4094
:101D70008283704702884FF2FF731A400280028804
:101D80000A4302807047B1F5804F04D1028842F4C3
:101D90008042028004E002884BF6FF731A40028002
:101DA00070474FF6FF62914204D0028842F480727D
:101DB000028004E002884FF6FF631A4002807047F9
:101DC00021B1828842F00402828004E082884FF6CA
:101DD000FB731A408280704721B1828842F0100262
:101DE000828004E082884FF6EF731A408280704749
:101DF00030B500220023848B4FF240052C408483B1
:101E000002240484828B0C88B4F5007F01D00C88F6
:101E100014B94FF4807308E00C88B4F5407F03D008
:101E20000C88B4F5807F00D100238C888D892C43E9
:101E30004D882C431C4344F400642243828330BD0C
:101E40000146888970478181704721B1028842F438
:101E50000052028004E002884DF6FF731A400280AF
:101E60007047018841F4805101807047024600208C
:101E7000012901D0108B00E0908A70470146088A42
:101E800070471AB183880B43838002E083888B43B9
:101E90008380704730B5002400230C110125A54034
:101EA000ABB2AAB185881D43858014E000300140A3
:101EB00000380040003C0040003401400050014028
:101EC000005401400838024000127A000024F40057
:101ED00085889D43858030BD0246002013890B40D4
:101EE0000BB1012000E000207047CA430281704717
:101EF000F0B50246002000240023002501F00F0762
:101F00000126BE40B4B20B1101269E40B3B29688A2
:101F100006EA03051689264016B10DB1012000E03E
:101F20000020F0BD10B5002201F00F040123A340F2
:101F30009AB2D343038110BD10B50446FE488442D3
:101F400008D101210846FFF712FD00210120FFF70B
:101F50000EFD9DE0B4F1804F08D101210846FFF746
:101F6000F5FC00210120FFF7F1FC91E0F3488442E9
:101F700008D101210220FFF7E9FC00210220FFF730
:101F8000E5FC85E0EE48844208D101210420FFF7FA
:101F9000DDFC00210420FFF7D9FC79E0E948844208
:101FA00008D101210820FFF7D1FC00210820FFF70C
:101FB000CDFC6DE0E448844208D101211020FFF7F8
:101FC000C5FC00211020FFF7C1FC61E0DF4884421E
:101FD00008D101212020FFF7B9FC00212020FFF7C4
:101FE000B5FC55E0DA48844208D101210220FFF710
:101FF000BEFC00210220FFF7BAFC49E0D54884422C
:1020000009D101210804FFF7B2FC00214FF4803010
:10201000FFF7ADFC3CE0D048844209D101214804DF
:10202000FFF7A5FC00214FF40030FFF7A0FC2FE0E4
:10203000CA48844209D101218804FFF798FC002195
:102040004FF48020FFF793FC22E0C548844208D17A
:1020500001214020FFF77AFC00214020FFF776FCA9
:1020600016E0C048844208D101218020FFF76EFCB1
:1020700000218020FFF76AFC0AE0BB48844207D1B8
:1020800001218015FFF762FC0021A015FFF75EFC1F
:1020900010BD00220288A84B98420ED0AC4B98424B
:1020A0000BD0B0F1804F08D0A44B984205D0A44B80
:1020B000984202D0A34B984204D14FF68F731A4036
:1020C0004B881A43A04B984207D0A04B984204D0AB
:1020D0004FF6FF431A400B891A4302804B68C362D4
:1020E0000B880385944B984202D0994B984201D1BA
:1020F0008B7A03860123838270474FF0FF31416062
:1021000000210180018141808172704701858282B6
:1021100070470A46002101884FF68F73194011431A
:102120000180704741627047C16270470146486A4A
:1021300070470146088D704721B1028842F00202C3
:10214000028004E002884FF6FD731A400280704757
:1021500021B1028842F00402028004E002884FF6B6
:10216000FB731A400280704721B1028842F080025E
:10217000028004E002884FF67F731A4002807047A5
:1021800002884FF6F7731A40028002880A430280E1
:10219000704702884FF6FF431A40028002880A43C4
:1021A0000280704721B1028842F00102028004E0FF
:1021B00002884FF6FE731A400280704770B5002403
:1021C00000220023058C4FF6FE7635400584028CF4
:1021D0008388048B4FF68F752C40B51E2C400D88DC
:1021E0002C43751E2A408D892A434D882A43524D1F
:1021F000A84202D0564DA84213D14FF6F7752A4097
:10220000CD892A434FF6FB752A408D882A434FF625
:10221000FF652B404FF6FF552B400D8A2B434D8A0F
:102220002B43838004838D684563028470BD70B541
:10223000002400220023058C4FF6EF7635400584FC
:10224000028C8388048B48F6FF752C404FF6FF45BF
:102250002C400D884FF6FF7606EA05252C434FF6F5
:10226000DF752A408D8906EA05152A434D8806EA5E
:1022700005152A43304DA84202D0354DA8421DD144
:102280004FF67F752A40CD894FF6FF7606EA051591
:102290002A434FF6BF752A408D8806EA05152A4362
:1022A0004FF6FF352B404FF2FF752B400D8A06EAA3
:1022B00085052B434D8A06EA85052B4383800483DD
:1022C0008D688563028470BD70B5002400220023F0
:1022D000058C4FF6FF6635400584028C8388848B1D
:1022E0004FF68F752C404FF6FC752C400D882C4313
:1022F0004FF6FF552A408D894FF6FF7606EA0525F1
:102300002A434D8806EA05252A430B4DA84202D0F0
:102310000F4DA84238D14FF2FF752A40CD894FF6B4
:10232000FF7606EA05252A434FF6FF352A408D88B9
:1023300006EA05252A4319E0000001400004004098
:1023400000080040000C0040001000400014004055
:1023500000040140004001400044014000480140A9
:1023600000180040001C0040002000404EF6FF75A1
:102370002B404DF6FF752B400D8A06EA05152B43C1
:102380004D8A06EA05152B43838084838D68C563D7
:10239000028470BD70B5002200230024058C4EF627
:1023A000FF7635400584038C8488828B48F6FF7560
:1023B0002A404FF6FF452A400D884FF6FF7606EA81
:1023C00005252A434DF6FF752B408D8906EA053514
:1023D0002B434D8806EA05352B43FE4DA84202D01B
:1023E000FD4DA84208D14BF6FF752C400D8A4FF6E3
:1023F000FF7606EA85152C43848082838D68056408
:10240000038470BD002101804180818081608181D1
:10241000C18101824182704770B5034600200024CB
:102420001846183001258D40ACB21D8CA5431D8483
:1024300009B108290AD100EB610005684FF68F76D3
:10244000354005600568154305600FE00D1FC5F3B5
:102450004E052844056848F6FF7635400560056856
:102460004FF6FF7606EA02263543056070BD4163EC
:10247000704781637047C1637047016470470A46C3
:102480000021018B4FF68F73194011430183704770
:102490000A460021018B48F6FF7319404FF6FF737F
:1024A00003EA02231943018370470A460021818B06
:1024B0004FF68F7319401143818370470A460021FC
:1024C000818B48F6FF7319404FF6FF7303EA02232E
:1024D0001943818370470A460021018B4FF6F77339
:1024E00019401143018370470A460021018B4FF2C6
:1024F000FF7319404FF6FF7303EA02231943018368
:1025000070470A460021818B4FF6F773194011433B
:10251000818370470A460021818B4FF2FF73194077
:102520004FF6FF7303EA02231943818370470A467B
:102530000021018B4FF6FB73194011430183704753
:102540000A460021018B4FF6FF3319404FF6FF7307
:1025500003EA02231943018370470A460021818B55
:102560004FF6FB7319401143818370470A460021DF
:10257000818B4FF6FF3319404FF6FF7303EA0223B6
:102580001943818370470A460021018B4FF67F7300
:1025900019401143018370470A460021018BC1F3A2
:1025A0000E014FF6FF7303EA0223194301837047BC
:1025B0000A460021818B4FF67F73194011438183B6
:1025C00070470A460021818BC1F30E014FF6FF735D
:1025D00003EA02231943818370470A460021018CD4
:1025E0004FF6FD7319401143018470470A460021DC
:1025F000018C4FF6F77319401143018470470A4666
:102600000021018C4FF6DF7319404FF6FF7303EA88
:1026100002131943018470470A460021018C4FF6CA
:102620007F7319404FF6FF7303EA021319430184C5
:1026300070470A460021018C4FF6FF5319404FF6B0
:10264000FF7303EA02231943018470470A460021FD
:10265000018C4FF2FF7319404FF6FF7303EA022318
:102660001943018470470A460021018C4DF6FF731F
:1026700019404FF6FF7303EA023319430184704790
:1026800030B5002301248C40A3B2048C9C43048405
:10269000048C02FA01F5ADB22C43048430BD30B590
:1026A000002304248C40A3B2048C9C430484048C37
:1026B00002FA01F5ADB22C43048430BD828B4FF297
:1026C000FF331A408283828B4FF6FF7303EA0123A4
:1026D0001A4382837047F0B50C461546002100224C
:1026E0000026078C4EF6FF7C07EA0C070784818BD7
:1026F000028C4FF6FF7707EA043640F6FF47394071
:102700004FF6FF7707EA052739434FF6FF7707EAC9
:102710000337394345F6FF773A4046F480573A434A
:1027200081830284F0BD828B4FF6F3731A4082835B
:10273000828B0A4382837047F0B50C461546002110
:1027400000220026078C4FF6FF6C07EA0C0707846F
:10275000818B028C4FF6FF7707EA04264FF60C7741
:1027600039404FF6FF7707EA03172F4339434FF2FB
:10277000FF573A4046F480773A4381830284F0BDA4
:10278000028B4FF2FF331A400283028B4FF6FF7326
:1027900003EA01231A4302837047F0B50C4615463D
:1027A000002100220026078C4FF6EF7C07EA0C0779
:1027B0000784018B028C4FF6FF7707EA041640F678
:1027C000FF4739404FF6FF7707EA033739434FF6A3
:1027D000FF7703E0000001400004014007EA0527FD
:1027E00039434FF65F773A4046F010073A4301838A
:1027F0000284F0BD028B4FF6F3731A400283028B02
:102800000A4302837047F0B50C46154600210022AA
:10281000068C4FF6FE773E400684018B028C4FF605
:102820000C7631407E1C06EA03162E4331434FF6E8
:10283000F576324044F00106324301830284F0BD54
:1028400070B505460C46208850B92389A288618856
:102850002846FFF7D8FFE1882846FFF7CBFF25E0A1
:10286000208804280AD12389A28861882846FFF796
:1028700094FFE1882846FFF783FF17E020880828A7
:102880000AD12389A28861882846FFF755FFE1888D
:102890002846FFF748FF09E02389A2886188284677
:1028A000FFF719FFE1882846FFF708FF70BD0021F8
:1028B00001804180012181800021C1800181704718
:1028C0002DE9F04105460C4600260127608808B92D
:1028D000022600E00026A088012801D1022700E09E
:1028E00001272088A0B92389A28861882846FFF79C
:1028F0008AFFE1882846FFF77DFF23893A46314663
:102900002846FFF74AFFE1882846FFF739FF13E022
:102910002389A28861882846FFF73FFFE18828467F
:10292000FFF72EFF23893A4631462846FFF76BFF13
:10293000E1882846FFF75EFFBDE8F0810146486B5D
:1029400070470146886B70470146C86B7047014667
:10295000086C70470A884B881A438B881A43CB88C7
:102960001A430B891A434B891A438B891A43A0F8DF
:10297000442070470021018041808180C180018115
:1029800041818181704731B1B0F8442042F4004266
:10299000A0F8442005E0B0F84420C2F30E02A0F8ED
:1029A0004420704721B1828842F00402828004E012
:1029B00082884FF6FB731A408280704721B182886B
:1029C00042F00102828004E082884FF6FE731A40D2
:1029D000828070471AB183890B43838102E0838927
:1029E0008B43838170478182704702460020138A9F
:1029F0000B400BB1012000E000207047CA43028267
:102A0000704730B50246002000230024158A05EAED
:102A10000103958905EA010413B10CB1012000E01E
:102A2000002030BDCA430282704741EA0203A0F889
:102A3000483070471AB183890B43838102E0838950
:102A40008B438381704721B1828842F008028280E3
:102A500004E082884FF6F7731A408280704701893C
:102A60004FF6F8721140018170470A460021018932
:102A70004FF68F73194011430181704730B50446FA
:102A80000D4629462046FFF7F0FF208940F0070059
:102A9000208130BD2DE9F04104460D4616461F4603
:102AA000602D06D13B46012231462046FFF775FED8
:102AB00005E03B46012231462046FFF7A4FE2946A9
:102AC0002046FFF7D2FF208940F007002081BDE8B3
:102AD000F08130B50C4600210189C9B24FF6FF756F
:102AE00005EA0325154325432943018130BD2DE91E
:102AF000F04105460E4617469846002443463A469E
:102B000031462846FFF7E5FF2C894FF6F870044060
:102B100044F007044FF68F70044044F070042C8199
:102B2000BDE8F081F0B504460D4616461F463B460B
:102B3000324629462046FFF7CCFF208940F48040EA
:102B40002081F0BD82884FF68F731A408280828880
:102B50000A438280704702894FF6F8731A40028157
:102B600002890A430281704702894FF67F731A4037
:102B7000028102890A4302817047F0B50C4615466E
:102B80001E460021002200230189028B038C4FF690
:102B9000F877394021434FF6FC473A4040F201179D
:102BA0003A434FF6DD773B404FF6FF7707EA0617CB
:102BB0002F433B43018102830384F0BD21B182880E
:102BC00042F08002828004E082884FF67F731A40D0
:102BD00082807047A0F850107047000010B504467E
:102BE000FA48844208D101211020FEF7C0FE0021DE
:102BF0001020FEF7BCFE57E0F548844209D10121C0
:102C00004804FEF7A3FE00214FF40030FEF79EFEBD
:102C10004AE0F048844209D101218804FEF796FE7B
:102C200000214FF48020FEF791FE3DE0EA48844207
:102C300009D10121C804FEF789FE00214FF40020CC
:102C4000FEF784FE30E0E548844209D10121080501
:102C5000FEF77CFE00214FF48010FEF777FE23E0A4
:102C6000DF48844208D101212020FEF780FE0021A8
:102C70002020FEF77CFE17E0DA48844209D10121CA
:102C80008807FEF763FE00214FF08040FEF75EFEEE
:102C90000AE0D548844207D101214005FEF756FEDF
:102CA00000216005FEF752FE10BD2DE9FF470546E5
:102CB0000E460024A14600BFA046B08900B100BF67
:102CC0002C8A24F44054F08804432C82AC8941F2CD
:102CD0000C608443B08831890843718908430443F8
:102CE000AC81AC8A24F44074B0890443AC82684659
:102CF000FEF7BDFCB548854202D0B948854202D1F5
:102D0000DDF80C9001E0DDF80890A88900F400409F
:102D100040B109EBC90000EB091031684900B0FB74
:102D2000F1F707E009EBC90000EB091031688900F1
:102D3000B0FBF1F76420B7FBF0F004012009642137
:102D400001FB1078A88900F4004040B1322000EB6C
:102D5000C800B0FBF1F000F00700044308E03220A7
:102D600000EB08106421B0FBF1F000F00F00044309
:102D70002C81BDE8FF874FF416510160002181804E
:102D8000C18001810C21418100218181704710B5F2
:102D900002460020108A20F470600B884C88234380
:102DA0008C882343CC8823431843108210BD002114
:102DB000018041808180C180704721B1828942F4C5
:102DC0000052828104E082894DF6FF731A408281AD
:102DD0007047028B02F47F420283028B0A43028314
:102DE000704721B1828942F40042828103E08289E6
:102DF000C2F30E028281704721B1828A42F40062DE
:102E0000828204E0828A4FF2FF731A408282704706
:102E1000C1F308028280704701468888C0F3080029
:102E20007047028A4FF6F0731A400282028A0A4300
:102E30000282704721B1828942F00202828104E05D
:102E400082894FF6FD731A408281704782894FF262
:102E5000FF731A40828182890A4382817047028A05
:102E60004FF6DF731A400282028A0A4302827047D9
:102E700021B1028A42F48042028204E0028A4BF6C7
:102E8000FF731A4002827047818941F001018181FC
:102E9000704721B1828A42F00802828204E0828A6D
:102EA0004FF6F7731A4082827047028BD2B20283C8
:102EB000028B42EA01220283704721B1828A42F0EA
:102EC0002002828204E0828A4FF6DF731A408282F7
:102ED000704721B1828A42F01002828204E0828A25
:102EE0004FF6EF731A4082827047828A4FF6FB7367
:102EF0001A408282828A0A438282704721B1828A82
:102F000042F00202828204E0828A4FF6FD731A4088
:102F1000828270471AB1838A0B43838202E0838ADC
:102F20008B4383827047F0B50346002400260025BA
:102F3000002040F66A17B94200D100BF1846C1F31D
:102F4000421401F01F06012707FA06F5012C01D1F2
:102F50000C3004E0022C01D1103000E014301AB122
:102F600007682F43076002E00768AF430760F0BDC2
:102F700002460020B1F5007F00D100BF13880B404E
:102F80000BB1012000E00020704701F40072B2F59F
:102F9000007F00D100BFCA430280704770B502466F
:102FA000002400230025002040F66A16B14200D11B
:102FB00000BFC1F3421501F01F03012606FA03F317
:102FC000012D13D19689334017E000000010014015
:102FD0000044004000480040004C004000500040C9
:102FE0000014014000780040007C0040022D02D116
:102FF000168A334001E0968A33400C12012606FA05
:1030000004F41688344013B10CB1012000E0002014
:1030100070BD10B50022002340F66A14A14200D111
:1030200000BF0A1201249440A3B2DC43048010BD07
:1030300010B504466FF00400FDF7B0FBE11704EB98
:103040005171C1F3C701394A11701046007800EB85
:103050004001C1EBC0104FF6FF7101EAC0003449D6
:10306000088010BD0146314A12784A434FF0E023F0
:103070005A6100229A611A46126942F001021A61ED
:1030800000BF4FF0E022106900F001021AB100F415
:103090008032002AF5D04FF0E022126922F00102BE
:1030A0004FF0E0231A6100229A6170470146204ADE
:1030B00012884A434FF0E0235A6100229A611A466F
:1030C000126942F001021A6100BF4FF0E02210695C
:1030D00000F001021AB100F48032002AF5D04FF05E
:1030E000E022126922F001024FF0E0231A6100226F
:1030F0009A61704770B504464FF4077094FBF0F086
:10310000C6B24FF4077094FBF0F100FB114085B29A
:1031100005E04FF40770FFF7C9FF701EC6B2002E1E
:10312000F7D115B12846FFF7C1FF70BD2C00002074
:103130002E00002000BF704700BF4C4A128802F0EA
:103140004002002AF9D0C2B2484B9A80704710B5AD
:1031500088B0044601210846FEF75AFB01211020E1
:10316000FEF7B0FB072209214148FEF73EF907228E
:103170000A213F48FEF739F94FF4C060069002205B
:103180008DF81C008DF81D0000208DF81E00012018
:103190008DF81F0006A93648FEF79CF8029400201F
:1031A000ADF80C00ADF80E00ADF81000ADF814004D
:1031B0000C20ADF8120002A92C48FFF776FD012182
:1031C0002A48FFF7FAFD012240F225512748FFF770
:1031D000AAFE25208DF8040003208DF805008DF847
:1031E000060001208DF8070001A8FDF78AFA08B053
:1031F00010BD10B540F225511C48FFF7CFFE10B3AB
:103200001A48FFF709FEC4B21A48008800F40040CB
:10321000C8B91848008800F4804060B10A2C03D077
:1032200000201449088020E01248008840F4004043
:103230001049088019E00D2C06D10E48008840F492
:1032400080400C49088010E00A480088C0F30D0057
:1032500009490C5407480088401C06490880084664
:103260000088C72801DD0020088010BD0010014043
:103270000000024034000020D400002030490A78C9
:103280000978491C2E4B19702E4988540978552904
:1032900003D000211A4611707047294909780B297B
:1032A00000DAF9E727494978512904D052290AD090
:1032B000532918D10FE02449224A921C13680B604D
:1032C00052684A600FE021491E4A921C13680B6045
:1032D00052684A6007E01E491A4A921C13680B6044
:1032E00052684A6000BF00BF0021154A117000BF3C
:1032F000D2E718490A780978491C164B1970164903
:1033000088540978552903D000211A461170704756
:10331000104909780B2900DAF9E70F494978532950
:1033200007D10E490C4A921C13680B6052684A6020
:1033300000BF00BF0021074A117000BFE7E700008F
:10334000560000209C010020360000203E00002096
:103350004600002057000020960200204E0000206A
:1033600000B58BB001210846FEF752FA012148064C
:10337000FEF797FA09220C21F848FEF736F80922E1
:103380000B21F648FEF731F84FF4C05002900220AE
:103390008DF80C0002A9F148FDF79CFF14208DF870
:1033A000040002208DF8050001208DF806008DF83C
:1033B000070001A8FDF7A5F913208DF804000120EE
:1033C0008DF805008DF806008DF8070001A8FDF7BF
:1033D00098F9E348FDF700FA08A8FDF721FB002063
:1033E0008DF826008DF827008DF828008DF829002B
:1033F0008DF82A0001208DF82B0000208DF8220086
:103400008DF8230008208DF8240003208DF8250076
:10341000ADF8200008A9D248FDF7F7F900208DF893
:103420001A008DF81B0001208DF81C000020ADF85B
:103430001000ADF81200ADF81400ADF81600ADF8AC
:10344000180001208DF81D0004A8FDF768FA01227C
:103450000221C348FDF762FD01221146C048FDF775
:103460005DFD0BB000BD10B50121BD48FDF7BEFDEF
:1034700030B10121BA48FDF754FE0120B949087066
:1034800010BD70B586B004460D46002600208DF8AC
:103490000C008DF80D0008208DF80E00072C06DCBE
:1034A0000F2D04DC46EA042646EA051601E006B0C4
:1034B00070BD019655208DF80F0055218DF8101024
:1034C0008DF811108DF812108DF813108DF814105E
:1034D0008DF815108DF816100020A249087001A96A
:1034E0009F48FDF70BFB6420FFF7BCFD00BFDEE744
:1034F000F0B585B004460D461746012600208DF82C
:1035000008008DF8090008208DF80A00072C06DC59
:103510000F2D04DC46EA042646EA051601E005B054
:10352000F0BD00968DF80B7055218DF80C108DF8BC
:103530000D108DF80E108DF80F108DF810108DF8FD
:1035400011108DF8121000208649087069468448D1
:10355000FDF7D4FA6420FFF785FD00BFDFE7F0B583
:1035600085B005460E461446022700208DF8080057
:103570008DF8090008208DF80A00072D06DC0F2EB3
:1035800004DC47EA052747EA061701E005B0F0BD6D
:10359000009741F28830844201DD044603E072481E
:1035A000844200DA0446200A8DF80B00E1B28DF85F
:1035B0000C1055218DF80D108DF80E108DF80F1090
:1035C0008DF810108DF811108DF81210002065493B
:1035D000087069466248FDF791FA6420FFF742FDE2
:1035E00000BFD3E72DE9F04186B005460E461446EC
:1035F0001F464FF0030800208DF80C008DF80D00D9
:1036000008208DF80E00072D06DC0F2E04DC48EA9A
:10361000052848EA061802E006B0BDE8F081CDF8BA
:10362000048041F28830844201DD044603E04E48C4
:10363000844200DA0446002C04DA01DD204600E072
:10364000604204B2200A8DF80F008DF81040390A4C
:103650008DF811108DF8127055218DF813108DF81A
:1036600014108DF815108DF8161000203D490870C3
:1036700001A93B48FDF742FA6420FFF7F3FC00BFC5
:10368000CAE72DE9F04186B005460E4614461F46AE
:103690004FF0040800208DF80C008DF80D00082074
:1036A0008DF80E00072D06DC0F2E04DC48EA0528F5
:1036B00048EA061802E006B0BDE8F081CDF80480C3
:1036C00041F28830844201DD044603E0264884420A
:1036D00000DA0446002C04DA01DD204600E06042F6
:1036E00004B2200A8DF80F008DF81040390A8DF8C9
:1036F00011108DF8127055218DF813108DF81410DB
:103700008DF815108DF8161000201649087001A9C3
:103710001348FDF7F3F96420FFF7A4FC00BFCAE7E4
:103720002DE9F04186B006460F4614461D464FF07F
:10373000050800208DF80C008DF80D0008208DF88C
:103740000E00072E06DC0F2F04DC48EA062848EAA4
:1037500007180BE006B0BDE8F08100000000024051
:10376000006400405800002078ECFFFFCDF8048092
:1037700041F28830844201DD044603E0FE48844281
:1037800000DA0446002C04DA01DD204600E0604245
:1037900004B2200A8DF80F008DF8104055218DF8E5
:1037A00011108DF81210290E8DF81310290C8DF8B8
:1037B0001410290A8DF815108DF816500020EF49C5
:1037C000087001A9EE48FDF799F96420FFF74AFC5B
:1037D00000BFBFE72DE9F04385B007468846144691
:1037E0001D460C9E4FF0060900208DF808008DF84C
:1037F000090008208DF80A00072F07DCB8F10F0F29
:1038000004DC49EA072949EA081902E005B0BDE8E5
:10381000F083CDF8009041F28830844201DD044607
:1038200003E0D548844200DA0446002C04DA01DDC6
:10383000204600E0604204B2002D04DA01DD284693
:1038400000E0684205B2200A8DF80B00E1B28DF865
:103850000C10290A8DF80D10E9B28DF80E10310EFA
:103860008DF80F10310C8DF81010310A8DF81110F1
:10387000F1B28DF812100020C04908706946C048A6
:10388000FDF73CF96420FFF7EDFB00BFBEE72DE933
:10389000F04186B005460E4614461F464FF0070815
:1038A00000208DF80C008DF80D0008208DF80E001A
:1038B000072D06DC0F2E04DC48EA052848EA061826
:1038C00002E006B0BDE8F081CDF80480002C04DAF7
:1038D00001DD204600E0604204B2200A8DF80F00AE
:1038E0008DF81040390A8DF811108DF8127055219D
:1038F0008DF813108DF814108DF815108DF8161022
:1039000000209E49087001A99D48FDF7F7F8642042
:10391000FFF7A8FB00BFD4E72DE9F04186B00646CB
:103920000F4614461D464FF0080800208DF80C0085
:103930008DF80D0008208DF80E00072E06DC0F2FE5
:1039400004DC48EA062848EA071802E006B0BDE8A9
:10395000F081CDF80480002C04DA01DD204600E07F
:10396000604204B2200A8DF80F008DF810405521F6
:103970008DF811108DF81210290E8DF81310290CE6
:103980008DF81410290A8DF815108DF816500020A6
:103990007A49087001A97A48FDF7B0F86420FFF76A
:1039A00061FB00BFD2E72DE9F04385B080460F46AA
:1039B00014461D460C9E4FF0090900208DF80800A2
:1039C0008DF8090008208DF80A00B8F1070F06DC11
:1039D0000F2F04DC49EA082949EA071902E005B07B
:1039E000BDE8F083CDF80090002C04DA01DD20461C
:1039F00000E0604204B2002D04DA01DD284600E058
:103A0000684205B2200A8DF80B00E1B28DF80C1067
:103A1000290A8DF80D10E9B28DF80E10310E8DF8CF
:103A20000F10310C8DF81010310A8DF81110F1B211
:103A30008DF8121000205149087069465048FDF772
:103A40005DF86420FFF70EFB00BFC8E72DE9F041E9
:103A500086B005460E4690461C460A2700208DF883
:103A60000C008DF80D0008208DF80E00072D06DCE7
:103A70000F2E04DC47EA052747EA061702E006B0E6
:103A8000BDE8F08114B1012C00D0002401978DF81D
:103A90000F808DF8104055218DF811108DF81210FF
:103AA0008DF813108DF814108DF815108DF8161070
:103AB00000203249087001A93148FDF71FF8642041
:103AC000FFF7D0FA00BFDAE770B586B004460D46BE
:103AD0000F2600208DF80C008DF80D0008208DF8C1
:103AE0000E00072C06DC0F2D04DC46EA042646EA0D
:103AF000051601E006B070BD019655208DF80F0047
:103B000055218DF810108DF811108DF812108DF8C8
:103B100013108DF814108DF815108DF81610002064
:103B20001649087001A91648FCF7E8FF6420FFF762
:103B300099FA00BFDEE700B585B002211048FDF715
:103B400055FA002840D002210D48FDF7EAFA6A46EE
:103B500000210B48FDF7C7F89DF80800002833D175
:103B60009DF808000028FAD19DF80A000828F6D12F
:103B700000981B2829D105E078ECFFFF58000020B1
:103B8000006400409DF80C009DF80B1040EA0120F5
:103B900000B26D4908809DF80E109DF80D0041EAB5
:103BA000002000B2694908809DF80F0001069DF8C9
:103BB000100041EA00419DF8110041EA00209DF803
:103BC0001210084362490860BCE000982B2822D1FB
:103BD0009DF80C009DF80B1040EA012000B25A49F4
:103BE00048809DF80E109DF80D0041EA002000B2BB
:103BF000564948809DF80F0001069DF8100041EAE3
:103C000000419DF8110041EA00209DF81210084380
:103C10004F49486096E000983B2822D19DF80C005F
:103C20009DF80B1040EA012000B2474988809DF8BA
:103C30000E109DF80D0041EA002000B24349888033
:103C40009DF80F0001069DF8100041EA00419DF823
:103C5000110041EA00209DF8121008433C49886099
:103C600070E000984B2822D19DF80C009DF80B10B5
:103C700040EA012000B23449C8809DF80E109DF83A
:103C80000D0041EA002000B23049C8809DF80F00C5
:103C900001069DF8100041EA00419DF8110041EA3B
:103CA00000209DF8121008432949C8604AE0009896
:103CB0001F2803D101202749087043E000982F28CE
:103CC00003D10120234948703CE000983F2803D1EC
:103CD00001202049887035E000984F2803D1012049
:103CE0001C49C8702EE000981C2808D19DF80B00D4
:103CF000194908709DF80C001849087022E00098D6
:103D00002C2808D19DF80B00134948709DF80C0031
:103D10001249487016E000983C2808D19DF80B0025
:103D20000D4988709DF80C000C4988700AE00098D5
:103D30004C2807D19DF80B000749C8709DF80C006E
:103D40000649C87005B000BD5A000020620000207E
:103D5000900300206A0000206E0000207200002006
:103D600010B50446282002F061F8A649086094EDD9
:103D7000020A0846006880ED020A94ED010A08462E
:103D8000006880ED010A94ED000A0846006880EDA5
:103D9000000A94ED030A0846006880ED070A94EDD6
:103DA000040A0846006880ED080A94ED050A0846F2
:103DB000006880ED090A9FED940A0846006880EDCE
:103DC000030A9FED910A0846006880ED040A9FED02
:103DD0008E0A0846006880ED050A9FED8B0A0846AA
:103DE000006880ED060A10BD012088490870704700
:103DF000002086490870704700B50246FFF7F8FFBB
:103E000092ED020A7F48006880ED020A92ED010AF5
:103E10007C48006880ED010A92ED000A794800684C
:103E200080ED000A92ED030A7648006880ED070AEB
:103E300092ED040A7348006880ED080AFFF7D4FF8A
:103E400000BD10B52DED048B71480078612803D0BA
:103E50006F480078622879D19FED6B0AB0EE408AF6
:103E60006C48B0F9040000EE100AB8EEC00A9FEDED
:103E70006A1AC0EE010A6348006890ED090A9FEDD6
:103E8000671A00EEC10A5F48006880ED040A6148C5
:103E9000B0F9040000EE100AB8EEC00A9FED5E1AF9
:103EA000C0EE010A9FED5D0A20EE800A10EE104A76
:103EB000204601F087F841EC190B53EC192B58A060
:103EC00001F032FB4F48006890ED040A10EE101A22
:103ED000084601F077F841EC190B53EC192B54A06C
:103EE00001F022FB4748006890ED040AF1EE040A55
:103EF000B4EEE00AF1EE10FA29D84248006890EDDD
:103F0000040AF9EE040AB4EEE00AF1EE10FA1EDB40
:103F10003C48006890ED040A3A48006880ED030AC6
:103F20003B480078612804D14A48008800F0F5FA3F
:103F300007E037480078622803D14648008800F03F
:103F400005FBB0EE480ABDEC048B10BD58E02D48CF
:103F5000006890ED050A2B480068D0ED040A294856
:103F6000006890ED071A00EE810A2648006880ED8F
:103F7000050A2448006890ED040A22480068D0ED44
:103F8000030A30EE600A1F480068D0ED080A80EE90
:103F9000201A1C48006880ED061A1A48006890ED47
:103FA000000A18480068D0ED040A20EE200A1548DF
:103FB0000068D0ED010A1348006890ED051A00EE84
:103FC000810A10480068D0ED020A0E48006890EDA2
:103FD000061A00EE810AB0EE408A0A48006890EDA9
:103FE000040A0848006880ED030ABDEEC80A10EE16
:103FF000101A494208B200F0F4FAB0EE480AA2E7FB
:1040000000BFA0E77C000020000000007800002036
:1040100083000020460000200000004700003443D9
:10402000416E676C653A20252E31660D0A0000004E
:104030006D797069645F747970656465662D3E6E34
:104040006F775F6572726F723A20252E31660D0AA6
:10405000000000008400002010B588B00446012153
:104060004804FDF71EFC01210846FDF7D1FB07229D
:1040700002219048FDF7B9F9072203218D48FDF789
:10408000B4F90C20069002208DF81C008DF81D005C
:1040900000208DF81E0001208DF81F0006A985481C
:1040A000FDF718F902940020ADF80C00ADF80E00F1
:1040B000ADF81000ADF814000C20ADF8120002A904
:1040C0007D48FEF7F2FD002240F227717A48FEF7A4
:1040D0002AFF012240F225517748FEF724FF4021B4
:1040E0007548FEF752FF01217348FEF766FE262051
:1040F0008DF8040001208DF8050002208DF80600DF
:1041000001208DF8070001A8FCF7FBFA08B010BDEC
:1041100010B588B0044601218804FDF7C2FB0121D7
:104120000220FDF775FB07220B216448FDF75DF9BE
:1041300007220A216148FDF758F94FF440600690C4
:1041400002208DF81C008DF81D0000208DF81E0047
:1041500001208DF81F0006A95848FDF7BBF802940E
:104160000020ADF80C00ADF80E00ADF81000ADF871
:1041700014000C20ADF8120002A95148FEF795FD7D
:10418000002240F227714E48FEF7CDFE012240F298
:1041900025514B48FEF7C7FE40214948FEF7F5FE82
:1041A00001214748FEF709FE27208DF80400022070
:1041B0008DF805008DF8060001208DF8070001A894
:1041C000FCF79FFA08B010BD10B540F227713A48CD
:1041D000FEF7E4FEE0B13B4802780078401C394B22
:1041E00018703948815C3448FEF712FE3548007873
:1041F00036490978884205D1002240F227712E48BD
:10420000FEF791FE40F227712B48FEF702FF10E007
:1042100040F225512848FEF7C1FE50B12649091D3C
:104220000988C8B2FFF72AF840F225512248FEF764
:10423000F0FE4FF458712048FEF7EBFE10BD10B5AC
:1042400040F227711E48FEF7A9FEE0B11D48027832
:104250000078401C1B4B18701B48815C1848FEF707
:10426000D7FD1848007819490978884205D10022FD
:1042700040F227711248FEF756FE40F227711048AF
:10428000FEF7C7FE10E040F225510D48FEF786FE0E
:1042900050B10B49091D0988C8B2FFF72AF840F24E
:1042A00025510748FEF7B5FE4FF458710448FEF754
:1042B000B0FE10BD00000240004400400004024077
:1042C0000048004080000020A00300208100002062
:1042D0007FB505460C4601210846FDF7E2FA029536
:1042E000ADF804400020ADF80600ADF80C0001A9BF
:1042F0004FF08040FDF7CDFE012211469007FEF7FA
:1043000069FB01218807FDF74DFF1C208DF8000097
:1043100001208DF8010003208DF8020001208DF8A6
:1043200003006846FCF7EDF97FBD7FB505460C46F6
:1043300001210220FDF7B5FA0295ADF804400020F6
:10434000ADF80600ADF80C0001A91748FDF7A1FE75
:10435000012211461448FEF73DFB01211248FDF7EA
:1043600021FF1D208DF8000002208DF801000320A0
:104370008DF8020001208DF803006846FCF7C1F9B2
:104380007FBD10B501218807FEF73BFB012804D152
:104390000648007808B1FFF754FD01218807FEF7B1
:1043A00041FB10BD70470000000400407800002071
:1043B00010B501210020FFF764F802210020FFF76B
:1043C00060F803210020FFF75CF804210020FFF7CC
:1043D00058F84FF47A7000F063F910BD10B5002260
:1043E00001211046FFF7BBF8002202211046FFF71B
:1043F000B6F8002203211046FFF7B1F8002204218D
:104400001046FFF7ACF810BD10B500210846FFF7C5
:104410005BFB0A2000F044F99F48007850B19E48A9
:10442000407838B19C48807820B19B48C07808B16A
:10443000012010BD0020FCE710B504469748047029
:10444000FEF78EFF642000F02BF901210020FFF71A
:1044500018F802210020FFF714F803210020FFF7CD
:1044600010F804210020FFF70CF801210846FFF79F
:1044700008F802210120FFF704F84FF47A7000F0E9
:104480000FF90023642201211846FFF7DFFA002309
:10449000642202211846FFF7D9FA0023642203217F
:1044A0001846FFF7D3FA0023642204211846FFF7C9
:1044B000CDFA0023642201210846FFF7C7FA002342
:1044C000642202210120FFF7C1FA012000F0E8F880
:1044D000224601210020FFF70BF82246022100208E
:1044E000FFF706F8224603210020FFF701F82246D5
:1044F00004210020FEF7FCFF224601210846FEF7BA
:10450000F7FF224602210120FEF7F2FF4FF4FA7076
:1045100000F0C6F8FFF778FF10BD10B5044622B2D0
:1045200001210020FFF71BF8604202B202210020A7
:10453000FFF715F8604202B203210020FFF70FF8E1
:1045400022B204210020FFF70AF810BD10B504467E
:10455000604202B201210020FFF701F822B20221DD
:104560000020FEF7FCFF22B203210020FEF7F7FF38
:10457000604202B204210020FEF7F1FF10BD10B529
:104580000446604202B201210020FEF7E8FF6042CB
:1045900002B202210020FEF7E2FF224603210020A2
:1045A000FEF7DDFF224604210020FEF7D8FF10BDF4
:1045B00010B50446224601210020FEF7D0FF224616
:1045C00002210020FEF7CBFF604202B2032100204F
:1045D000FEF7C5FF604202B204210020FEF7BFFFD4
:1045E00010BD10B50446224601210020FEF7B7FF9A
:1045F000224602210020FEF7B2FF224603210020BE
:10460000FEF7ADFF224604210020FEF7A8FF10BDF3
:1046100010B50446224601210020FEF7A0FF2246E5
:1046200002210020FEF79BFF224603210020FEF717
:1046300096FF224604210020FEF791FF10BD10B521
:104640000446604202B201210020FEF788FF60426A
:1046500002B202210020FEF782FF604202B2032173
:104660000020FEF77CFF604202B204210020FEF72A
:1046700076FF10BD10B50446604202B20121084623
:10468000FEF76DFF10BD10B50446604202B2022174
:104690000120FEF764FF10BD6A00002082000020A8
:1046A00010B5002107E042F63C0200BF1300A2F162
:1046B0000102FBD1491C8142F5D310BD10B5002188
:1046C00006E0092200BF1300A2F10102FBD1491C40
:1046D0008142F6D310BD00001CB501212020FDF75A
:1046E00097F84FF48070009001208DF804000020AE
:1046F0008DF8060003208DF8050002208DF80700D4
:1047000069460448FCF7E6FD4FF480710148FCF768
:104710005FFE1CBD001402401CB501210220FDF704
:1047200077F84FF48050009000208DF804000320AB
:104730008DF8050002208DF807006946F648FCF761
:10474000C9FD4FF46040009001208DF80400002066
:104750008DF8060003208DF8050002208DF8070073
:104760006946ED48FCF7B6FD1CBD38B5044601208E
:1047700000900020E9494870012000902EE0BDF82B
:104780000000204018B10120E549086002E0002047
:10479000E34908600120E249083108600520FEF77E
:1047A00061FC0020DF49C1F8BC020520FEF75AFC7D
:1047B0000120DC49C1F8BC020846D0F8300230B113
:1047C000D6484078BDF800100843D4494870BDF879
:1047D00000004FF6FF7101EA40000090BDF80000B4
:1047E000FF28CCDD1020FEF73DFC38BD10B50020C1
:1047F000CB49091D0860CC490878FFF7B6FFCA49C4
:104800004878FFF7B2FF0120C649C1F8B802C34893
:104810004078732801D1002010BD0120FCE71CB5B1
:1048200000200190012000900020BD49091D086072
:10483000BD490878FFF799FFBB494878FFF795FF16
:104840000220019036E00120009027E00120B449C9
:10485000083108600520FEF705FC0020B149C1F8C9
:10486000BC020520FEF7FEFB0120AE49C1F8BC02E8
:104870000846D0F8300250B1A8489DF80410405CBA
:10488000BDF800100843A5499DF804208854BDF8E0
:1048900000004FF6FF7101EA40000090BDF80000F3
:1048A000FF28D3DD1020FEF7DDFB9DF80400401C3F
:1048B000C0B201909DF804000928C4DB012098498A
:1048C000091D08601CBD002004E00021934A11541A
:1048D000411CC8B20928F8DB704710B5FFF7F3FF99
:1048E000FFF79DFF8D48C0788C49097940EA012087
:1048F0008E49088000240FE08D4810F81400401EF7
:10490000012101FA00F089490988084010B9601CAA
:10491000C0B210BD601CC4B2102CEDDB0020F8E763
:1049200001467E48405C704770B505460C46002045
:104930007B49091D08601020FEF794FB0120FFF75A
:1049400014FF4220FFF711FF0020FFF70EFF28465B
:10495000FFF70BFF2046FFF708FF0020FFF705FFDA
:104960000020FFF702FF0020FFF7FFFE0020FFF707
:10497000FCFE01206B49C1F8B8021020FEF772FB63
:1049800070BD10B500206649091D08601020FEF7B3
:1049900069FB0120FFF7E9FE4220FFF7E6FE002059
:1049A000FFF7E3FE0020FFF7E0FE0020FFF7DDFE4B
:1049B00001205C49C1F8B8021020FEF753FB10BD7E
:1049C00010B500205649091D08601020FEF74AFB6B
:1049D0000120FFF7CAFE4320FFF7C7FE0020FFF7C4
:1049E000C4FE0120FFF7C1FE0020FFF7BEFE00203D
:1049F000FFF7BBFE0020FFF7B8FE0020FFF7B5FE73
:104A00000020FFF7B2FE01204649C1F8B80210208D
:104A1000FEF728FB10BD10B500204149091D0860B4
:104A20000120FFF7A2FE4420FFF79FFE0020FFF7C2
:104A30009CFE0120FFF799FEEE20FFF796FE002076
:104A4000FFF793FE0020FFF790FE0020FFF78DFE9A
:104A50000020FFF78AFE01203249C1F8B802102079
:104A6000FEF700FB10BD10B500202D49091D0860A0
:104A70001020FEF7F7FA0120FFF777FE4D20FFF731
:104A800074FE0020FFF771FE0020FFF76EFE01208C
:104A9000FFF76BFE01202349C1F8B8021020FEF792
:104AA000E1FA10BD10B500201D49091D0860102055
:104AB000FEF7D8FA0120FFF758FE4320FFF755FE16
:104AC0000020FFF752FE0020FFF74FFE5A20FFF7AD
:104AD0004CFE5A20FFF749FE5A20FFF746FE5A20A7
:104AE000FFF743FE5A20FFF740FE01200D49C1F8B1
:104AF000B8021020FEF7B6FA10BD10B5FFF741FF5F
:104B0000FFF73FFFFFF73DFFFFF75AFFFFF783FF78
:104B1000FFF7C8FF10BD000000040240A004002001
:104B2000B48240420080404288000020860000207D
:104B30008A00002000B585B00021CA48FDF702F9BF
:104B40000020ADF800004FF48270ADF802000020A4
:104B5000ADF80400ADF80600ADF808004FF40070A1
:104B6000ADF80A003820ADF80C000020ADF80E00BA
:104B70000720ADF810006946BA48FCF7E9FF0121AB
:104B8000B848FDF7DFF805B000BD1CB50121422093
:104B9000FCF73EFE4FF48040009001208DF80400A9
:104BA00000208DF8060003208DF8050001208DF807
:104BB00007006946AC48FCF78DFBC020009001203F
:104BC0008DF8040000208DF8060003208DF8050004
:104BD00001208DF807006946A448FCF77BFB4FF4E1
:104BE0008070009000208DF8040001208DF80700EF
:104BF00069469E48FCF76EFB4FF480419A48FCF7EB
:104C0000E5FB00F05AF9FFF795FF0020984908608E
:104C100001209849C1F89C021CBD2DE9F0410746CE
:104C20000D46164600209249091D0860384600F0DE
:104C30002BF98046002405E0FF2000F025F92855D7
:104C4000601CC4B2B442F7DB01208949091D086029
:104C50004046BDE8F0812DE9F04107460C46154677
:104C600000208349091D0860384600F00DF9804690
:104C7000002605E014F8010B00F006F9701CC6B21E
:104C8000AE42F7DB01207A49091D08604046BDE8C5
:104C9000F0811CB578A103C9CDE90001102000F016
:104CA00069F9052269463020FFF7D5FF05226946DC
:104CB0001020FFF7B2FF002406E01DF80400A5282D
:104CC00000D003E0601CC4B2052CF6DB00BF052C4D
:104CD00001D001201CBD0020FCE770B505460C4644
:104CE00000206349091D0860284600F0CDF80646FB
:104CF000204600F0C9F801205E49C1F89C02304608
:104D000070BD70B5044600205949091D0860204651
:104D100000F0BAF8FF2000F0B7F805460120554929
:104D2000C1F89C02284670BD70B50546102000F001
:104D300021F900204E49086020222946A020FFF7D3
:104D40008AFF01204B49C1F8980200BF48487838D3
:104D500000680028FAD10720FFF7D3FF0446214658
:104D60002720FFF7BAFF04F0100028B1FF21E1204F
:104D7000FFF7B3FF102070BD04F0200008B1202021
:104D8000F9E7FF20F7E770B50446102000F0F2F8CD
:104D90000720FFF7B6FF054629462720FFF79DFFAE
:104DA00005F0400050B1202221466120FFF735FF79
:104DB000FF21E220FFF791FF002070BD0120FCE7FA
:104DC00010B500202A49086005222D492A20FFF746
:104DD00042FF01212120FFF780FF01212220FFF760
:104DE0007CFF28212520FFF778FF20213120FFF7C5
:104DF00074FF0F212620FFF770FF0F212020FFF7FF
:104E00006CFF01201B49C1F8980210BD10B50020AD
:104E10001749086005221B493020FFF71CFF0522B7
:104E200017492A20FFF717FF01212120FFF755FF1F
:104E300001212220FFF751FF1A212420FFF74DFF07
:104E400028212520FFF749FF0F212620FFF745FFE6
:104E50000E212020FFF741FF01200649C1F89802EA
:104E600010BD000000300140000402400018024064
:104E70009802434200004342A5A5A5A5A500000055
:104E80009D5E0008985E000810B5044600BF022130
:104E90004148FDF721F80028F9D021463E48FCF7AB
:104EA000D2FF00BF01213C48FDF716F80028F9D0D9
:104EB0003948FCF7C5FFC0B210BD00B587B001216D
:104EC0000846FCF7A5FC01210803FCF7FBFC382091
:104ED000059002208DF8180000208DF81A0003209C
:104EE0008DF8190001208DF81B0005A92B48FCF74F
:104EF000F1F9052203212948FCF777FA052204215C
:104F00002648FCF772FA052211462448FCF76DFA90
:104F100001210803FCF72BFD00214FF48050FCF722
:104F200026FD0020ADF800004FF48270ADF80200BD
:104F30000020ADF804000220ADF806000120ADF815
:104F400008004002ADF80A003820ADF80C0000203F
:104F5000ADF80E000720ADF8100069460E48FCF7CA
:104F6000F7FD01210C48FCF7EDFEFF20FFF78CFF59
:104F700007B000BD10B50446074800884FF6C7715A
:104F80000840054908800846008820430880012120
:104F90000148FCF7D7FE10BD00300140000402407C
:104FA000D2B201E000F8012B491EFBD2704700226B
:104FB000F6E710B513460A4604461946FFF7F0FF18
:104FC000204610BD00F0004230F000400AD0C10D74
:104FD00001F56071C0F3160042EA0151C2084007B2
:104FE0001143704700200146704730B50B4601461B
:104FF00000202022012409E021FA02F59D4205D378
:1050000003FA02F5491B04FA02F52844151EA2F121
:105010000102F1DC30BD2DE9F05F0546002092462B
:105020009B4688460646814640241BE0284641466A
:105030004746224600F0F9F953465A46C01A9141B4
:1050400010D311461846224600F0E0F92D1A67EBFE
:1050500001084F4622460120002100F0D7F917EB46
:1050600000094E41201EA4F10104DFDC4846314610
:105070002A464346BDE8F09F2DE9FE4F804681EA6F
:105080000300C00F0C46009021F0004123F00045C2
:10509000B8EB0200A94105D24046214690461C4685
:1050A0000B46024623F00040104347D0270DC7F3BC
:1050B0000A00C3F30A510290401A019040286BDAAB
:1050C000C3F3130040F4801B0098924620B10023E4
:1050D000D2EB030A63EB0B0B01985946C0F1400277
:1050E000504600F093F906460D4650465946019A3F
:1050F00000F0ABF910EB08006141002487EA11527F
:1051000084EAE7731A4340D0009A62B3019A012AF5
:105110004FEA075215DC001B61EB02014FF0004221
:1051200002EA0752CDE90042001C41F580113246E7
:105130002B4600F0ABF903B0BDE8F08F40462146A6
:10514000F9E7001B61EB0201001C41F58013001818
:105150005B412018A2F5001747EB030140EAD57028
:10516000B6196D4111E06D084FEA360645EAC07583
:105170004FEA0752001B61EB0201001C41F5801150
:1051800049084FEA30000019514132462B4603B01E
:10519000BDE8F04F00F06BB90098012240000023F9
:1051A000D0EB020263EBE073009821464FEAE07413
:1051B000B8EB000061EB0401E9E783F000435BE733
:1051C00081F0004158E72DE9FE4F81EA030404F025
:1051D000004421F0004100944FF0000B23F0004305
:1051E00050EA01045ED052EA03045BD0C3F30A54D0
:1051F000C1F30A552C44A4F2F3340194A0FB0254E9
:10520000C1F3130141F48011C3F3130343F480137A
:1052100001FB024400FB034E840A970A44EA8154CE
:1052200047EA8357A4FB076802958D0A05FB0785AB
:105230004FEA932C04FB0C542705029D4FEA0658B5
:1052400047EA1637B5EB08056EEB070C870E920E92
:1052500047EA811742EA8312A7FB0201B6EB0B0172
:1052600064EB00042B0D43EA0C335E1844EB1C5036
:10527000DA465146E7FB0201C5F313044FEA0B334C
:1052800043EA14534FEA0432019C43EA0603A4F1B3
:105290000C040294009CCDE900B400F0F7F803B0D0
:1052A000BDE8F08F00200146F9E72DE9F04D81EAD5
:1052B000030404F0004B21F0004514464FF0000AAF
:1052C00023F0004150EA050220D054EA01021DD02B
:1052D000C5F30A570246C5F31303C1F31300C1F324
:1052E0000A5640F4801543F48013A7EB0608101B00
:1052F000D64608F2FD3873EB050002D308F1010829
:1053000001E092185B41B8F1000F03DA002001467A
:10531000BDE8F08D00204FF48011064684460EE073
:10532000171B73EB050705D3121B63EB050306433D
:105330004CEA010C49084FEA300092185B4150EAF0
:105340000107EDD152EA030012D082EA040083EA99
:105350000501084305D0101BAB4106D201220023F2
:1053600006E000224FF0004302E06FF0010253100C
:105370001AEB06004CEB085110EB0A0041EB0B0155
:10538000BDE8F04D00F073B8C1F30A52C1F3130148
:1053900040F2FF3341F480119A4202DA00200146C4
:1053A000704740F233439A42A2F2334202DC524247
:1053B00000F03BB800F02AB830B5041E71F10004CB
:1053C00004DB4FF00044404264EB0101141E73F112
:1053D000000405DB1C464FF00043524263EB04031C
:1053E000994208BF904230BD064C074D06E0E06888
:1053F00040F0010394E8070098471034AC42F6D31C
:10540000FAF7C6FEA45E0008C45E0008202A04DB8A
:10541000203A00FA02F1002070479140C2F12003C7
:1054200020FA03F3194390407047202A04DB203A06
:1054300021FA02F00021704721FA02F3D040C2F1B4
:1054400020029140084319467047202A06DBCB17FB
:10545000203A41FA02F043EAE07306E041FA02F32F
:10546000D040C2F12002914008431946704710B560
:10547000141E73F1000408DA401C41F10001921877
:105480005B411A4301D120F0010010BD2DE9F04D20
:1054900092469B4611B1B1FA81F202E0B0FA80F275
:1054A00020329046FFF7B2FF04460F4640EA0A005A
:1054B00041EA0B0153465A46084313D0114653EABA
:1054C000010019D0C8F140025046FFF7AEFF054673
:1054D0000E46504659464246FFF798FF084305D00E
:1054E000012004E020463946BDE8F08D0020054348
:1054F00046EAE0762C4337430A986305E40AA0EBBA
:1055000008000022FD0A44EA47540A3002D5002070
:105510000146E9E7010510196941DDE9084500196F
:105520006941BDE8F04DA2E70FB4054B10B503A9E2
:10553000044A029800F0DEF810BC5DF814FB00008D
:1055400039310008300000200FB4084B10B504A911
:1055500002AA039800F0CEF8044602A9002000F049
:1055600060FC204610BC5DF814FB0000235E0008C0
:1055700002E008C8121F08C1002AFAD1704770471C
:10558000002001E001C1121F002AFBD1704700007A
:105590002DE9FF5FDDE90220010DDDF838B002439F
:1055A00018D044F61050A1F2FF3141430D140F986A
:1055B000012820D0A5EB0B00401C5FEA000A4FF049
:1055C0000004474EDFF81C91A046504616D5CAF19C
:1055D000000728E00F98012443A2012808D00021E9
:1055E00000980F9BC0E90021C0E90243BDE8FF9F7E
:1055F0006FEA0B01F4E7CBF10000DEE7074612E0AB
:10560000F80707D02246334640464946FFF7DBFD00
:10561000804689462246334610461946FFF7D3FD99
:1056200004460E467F10002FEAD1DDE90201BAF1EF
:10563000000F42464B4602DAFFF7C5FD01E0FFF7D7
:1056400034FE04460E460022284BFFF7B5FE03D871
:105650004FF0FF30014607E00022254B204631463F
:10566000FFF70AFDFFF790FE102409E0002C0ADB8B
:105670000A220023FFF7CFFC019B30321A55641E2B
:1056800050EA0102F2D1641C019AC4F111031444DE
:105690000F9A012A03D0012208430DD10AE00843E2
:1056A00004D000204FF0110B0F9080E7A3EB0B0507
:1056B0006D1E0DE05B4504DD4FF0000205F10105B4
:1056C00004E003DA4FF00002A5F10105002AECD056
:1056D00000980F99C0E90231C0E9004586E7000053
:1056E000000024400000F03F300000000000F043C4
:1056F0000000E03F2DE9FF4F95B09B4689460646E6
:1057000000250FE2252877D100242746F84A0121F9
:10571000059400E0044316F8013F203B01FA03F032
:105720001042F7D130782A2811D06FF02F0330784B
:10573000A0F13002092A16D8059A44F0020402EBBF
:10574000820203EB42021044761C0590EFE759F801
:10575000042B0592002A03DA504244F400540590C9
:1057600044F00204761C30782E2816D116F8010F6A
:1057700044F004042A280DD06FF02F023078A0F1F5
:105780003003092B09D807EB870302EB4303C71843
:10579000761CF3E759F8047B761C30786C280FD020
:1057A00006DC4C2817D068280DD06A2814D104E0F4
:1057B000742810D07A280FD10DE044F400140AE0C8
:1057C00044F4801401E044F440147278824202D11F
:1057D00004F58014761C761C307866280BD013DC18
:1057E000582877D009DC002875D04528F6D04628FF
:1057F000F4D047281AD19DE118E0632835D06428F9
:1058000079D0652812D195E1702873D008DC67281B
:10581000F1D069286FD06E280DD06F2806D1B5E081
:1058200073282CD0752875D0782874D05A461799CB
:1058300090476D1C75E1C4F30250022809D003287B
:105840000DD0D9F8001004280DD00D6009F104091D
:1058500067E1D9F80010EA17C1E90052F6E7D9F874
:1058600000100D80F2E70D70F0E719F8041B8DF8B9
:10587000001000208DF80100EA46012003E059F8ED
:1058800004AB4FF0FF3061074FF0000102D40DE090
:1058900008F101018846B9420FDA8045F8DB1AF8B1
:1058A00008100029F4D108E008F10101884681427E
:1058B000FADB1AF808100029F6D105985B46A0EB30
:1058C000080721463846179A00F094FA284400EB5E
:1058D000080507E04DE029E10DE01AF8010B5A46F2
:1058E00017999047B8F10108F7D25B462146384630
:1058F000179A13E142E00A220092C4F302524FF0D9
:10590000000A022A08D059F804CB032A4FEAEC71A6
:105910000AD00DE029E02AE009F1070121F0070291
:10592000F2E802C1914609E00FFA8CFC4FEAEC71F3
:10593000042A03D14FFA8CFC4FEAEC71002907DAF4
:105940000A460021DCF1000C61EB02012D2202E08D
:10595000220504D52B228DF80420012203E0E20762
:1059600001D02022F7E7904659E00A2102E01022F8
:105970000DE010214FF0000A00910BE010224FF0D3
:10598000000A44F004040827009203E008224FF0C4
:10599000000A0092C4F30252022A05D059F804CB3F
:1059A0000021032A08D009E009F1070121F00702CC
:1059B000F2E802C1914605E01FFA8CFC042A01D1ED
:1059C0000CF0FF0C4FF00008220728D5702806D0F5
:1059D000009B83F0100353EA0A0305D00EE0402237
:1059E0008DF80420012208E05CEA010206D0302292
:1059F0008DF804208DF8050002229046009B83F06C
:105A0000080353EA0A030AD15CEA010201D16207E2
:105A100005D530228DF804204FF001087F1E58284C
:105A200004D034A003900EA802900DE036A0F9E750
:105A300053466046009AFFF7EEFA84460398825C6C
:105A40000298401E029002705CEA0100F0D10298B8
:105A500006A9081A00F1200A600702D524F4803450
:105A600000E00127574502DDA7EB0A0000E0002017
:105A700000EB0A01009005984144401A0590E003AC
:105A800006D45B462146179A059800F0B3F9054401
:105A9000002706E001A85A46C05D179990476D1C83
:105AA0007F1C4745F6DBE0030CD55B462146179A81
:105AB000059800F09FF9054404E030205A461799F4
:105AC00090476D1C0099481E00900029F5DC08E005
:105AD000029802995A460078491C029117999047FA
